:020000040000FA
:0400000081EF00F09C
:1000080035011D011D011D0140001D0140001D019C
:100018001D011D011D011D011D011D011D011D01E8
:100028001D014000400040001D011D011D011D0172
:100038001D011D011D012E01EF001D011D011D01E6
:100048001D011D011D011D01400040001D011D0174
:100058001D011D011D0140001D011D011D011D0186
:100068001D011D011D011D011D011D011D011D0198
:100078001D011D011D011D0140001D011D011D0166
:100088001D011D011D011D011D011D011D011D0178
:100098001D011D011D011D0140001D014000400002
:1000A8001D011D011D011D011D011D011D011D0158
:1000B8001D011D011D011D011D011D011D011D0148
:1000C8001D011D011D011D011D011D011D011D0138
:1000D8001D011D011D011D011D011D011D011D0128
:1000E80040001D011D011D0140004000400040006E
:1000F8001D011D011D011D01FF0063EF01F080833B
:1001080086898C8F9295989B9EA2A5A7AAADB0B31D
:10011800B6B9BCBEC1C4C6C9CBCED0D3D5D7DADC3C
:10012800DEE0E2E4E6E8EAEBEDEEF0F1F3F4F5F612
:10013800F8F9FAFAFBFCFDFDFEFEFEFFFFFFFFFFEC
:10014800FFFFFEFEFEFDFDFCFBFAFAF9F8F6F5F4FA
:10015800F3F1F0EEEDEBEAE8E6E4E2E0DEDCDAD734
:10016800D5D3D0CECBC9C6C4C1BEBCB9B6B3B0AD69
:10017800AAA7A5A29E9B9895928F8C898683807C3E
:10018800797673706D6A6764615D5A5855524F4C41
:10019800494643413E3B393634312F2C2A28252302
:1001A800211F1D1B1917151412110F0E0C0B0A090C
:1001B8000706050504030202010101000000000012
:1001C80000000101010202030405050607090A0BE4
:1001D8000C0E0F1112141517191B1D1F212325288A
:1001E8002A2C2F313436393B3E414346494C4F5235
:1001F80055585A5D6164676A6D707376797C21EE33
:100208007EF111EE09F11D0EDBC4E3F4E806FCE211
:1002180021EE60F111EE27F11D0EDBC4E3F4E806D0
:10022800FCE2D8905334D96E5434DA6E270ED926AE
:10023800050EDA22DE50515CDE505258D8B027EF56
:1002480001F029EF01F040EF01F0D8905534D96E54
:100258005634DA6E090ED926050EDA22610078F3D3
:1002680002F5610074F303F5010E046E95EC01F0DC
:10027800514A522A44EF01F0554A562A534A542A01
:10028800565009E1100E555CD8A04DEF01F04FEF24
:1002980001F062EF01F0000E566E000E556E000E72
:1002A800546E000E536EFE0E086EA70E076E660E95
:1002B800E82EFED7072EFCD7082EFAD71200060E16
:1002C800F66E010EF76E000EF86E01EE00F210EEFB
:1002D80000F10900F5C4EEF4E550E150FAE1E2500E
:1002E800F8E17E0EF66E030EF76E000EF86E01EE64
:1002F80060F110EE3CF00900F5C4EEF4E550E15071
:10030800FAE101EE45F1170EEE6AE806FDE1040197
:10031800080E5D6F000E5E6F000E5F6F000115EF37
:1003280002F003011E91800E035CD8A09EEF01F03D
:10033800A0EF01F0A3EF01F07F0E036E0268021C2C
:10034800056E031C066E0650596E05C558F561000A
:1003580064F51DF3610060F51CF35A900450D8B49D
:10036800B8EF01F0BAEF01F0BBEF01F05A80B19895
:10037800A1881E8112000002000200020002000291
:100388000002000200040002000200020002000253
:10039800000200043C003C002800280024002D0036
:1003A800240028002D002D002F002F0035003500D7
:0203B8003C0007
:1003BC00610064F51DF3610060F51CF3040E572613
:1003CC00000E5724D96EDA6A060EDA22DF500001CD
:1003DC007D6FB1985AB0F5EF01F0F7EF01F0FAEF3D
:1003EC0001F0A19803011E911100000E4D6E000E3C
:1003FC004E6E000E4F6E000E506E000E496E000ECB
:10040C004A6E000E4B6E000E4C6E7D0E0301236F78
:10041C00010E266FB196F00E246FA18612005B8E32
:10042C006CEC02F047EC02F065EC02F0FBEC01F036
:10043C002BEC02F05B9E03EC01F0BE9E52EC02F042
:10044C00BE8E21EF02F081EF00F0C00EBE16900EB2
:10045C0003011A6F540E1B6F000E1F6F010E216FDC
:06046C00310E1E6F1200AC
:10047400610060F301F5010E4526000E4622472275
:100484004822610004F4D8F41100000E0401006F46
:10049400000EC66EA00E00017F6F000E7D6F12006D
:1004A4005B8C5BBC58EF02F05AEF02F053EF02F0A2
:0204B400120034
:1004B800B1965B9C010E4D26000E4E224F22502213
:0A04C8001100D68AD68ED68C1200E1
:0604D400AE9011001200C1
:020000040020DA
:10000000FF0FFF0FFF0FFF0FFF0FFF0FFF0FFF0F80
:10001000FF0FFF0FFF0FFF0FFF0FFF0FFF0FFF0F70
:020000040030CA
:0A0000008CFEFFFC9FFFFFFFFFFFD7
:00000001FF
