:020000040000FA
:04000000FEEFFFF020
:020000040001F9
:10FF2F0080120012001200000EBE6E000E040100BF
:10FF3F006F000EC66E1200000E096E000E0A6E00E4
:10FF4F000E0B6E000E0C6E000E056E000E066E0090
:10FF5F000E076E000E086E1200048E98ECFFF0A3D1
:10FF6F00ECFFF09BECFFF09AECFFF0D8ECFFF09970
:10FF7F00ECFFF0BDEFFFF0FEEFFFF02F0EF66EFF80
:10FF8F000EF76E010EF86E09006100D4F310F50143
:10FF9F00EE01F10D0EEE6AE806FDE10001B4EFFF90
:10FFAF00F0F5EFFFF0610040F4BEF40D0E0F6EAFF1
:10FFBF000E0E6EB60EE82EFED70E2EFCD70F2EFAB3
:10FFCF00D700D0102ABF0E1018D8A4F1EFFFF0F30E
:10FFDF00EFFFF0F5EFFFF0800E106EBE0E1064FB1A
:10FFEF00EFFFF0FDEFFFF0DAEFFFF01200C5EFFFCC
:01FFFF00F011
:020000040020DA
:10000000FF0FFF0FFF0FFF0FFF0FFF0FFF0FFF0F80
:10001000FF0FFF0FFF0FFF0FFF0FFF0FFF0FFF0F70
:020000040030CA
:0A0000008CFEFFFC9FFFFFFFFFFFD7
:00000001FF
